:100000005DC0000083C0000081C000007FC0000010
:100010007DC000007BC0000079C0000077C00000F8
:1000200075C000000C948F2371C000000C94E12671
:100030006DC000006BC0000069C0000067C0000018
:100040000C94C72863C000000C947E2B0C94B02B3A
:100050005DC000005BC0000059C0000057C0000038
:1000600055C0000053C0000000000008000201005D
:100070000003040700000000000000000102040863
:100080001020408001020408102001020408102002
:10009000040404040404040402020202020203032E
:1000A0000303030300000000250028002B000000CC
:1000B0000000240027002A002B01D52B11241FBE8D
:1000C000CFEFD8E0DEBFCDBF11E0A0E0B1E0EAE1C4
:1000D000FAE502C005900D92A23CB107D9F725E0E0
:1000E000A2ECB1E001C01D92AD35B207E1F710E01E
:1000F000CEE5D0E004C02197FE010E94DC2CCC3577
:10010000D107C9F70E94A6240C940B2D79CFCF9369
:10011000DF93882349F0EB0181500E94A72999833E
:100120008883DF91CF910895FB0111821082F9CF6E
:100130000F931F938B019C0183E0369527951795AC
:1001400007958A95D1F70E531E4F462F477021E031
:1001500030E0F90102C0EE0FFF1F4A95E2F7AF0150
:10016000F80120812423CB010196211102C090E0E7
:1001700080E01F910F9108950F931F938B019C01B5
:1001800083E036952795179507958A95D1F767707F
:1001900081E090E001C0880F6A95EAF7F801EE531C
:1001A000FE4F2081452B31F48095822380831F915F
:1001B0000F910895822BFACFCF92DF92EF92FF92A8
:1001C000CF93DF936B017C0160E08EE0C816D10411
:1001D000E104F10490F48EE08C0D0E94EB29E6011D
:1001E0002196AE01C701B601C7DFCE01DF91CF91E5
:1001F000FF90EF90DF90CF9008958C2DEECF882365
:1002000041F08150682F70E090E080E050E040E0E5
:10021000B3CF0895611102C00C94EB296130E1F372
:1002200062E0FACF662319F061E00C94272A60E0BF
:10023000FCCF70E023E0829FC001112485539E4FC4
:100240000C94322870E023E0829FC0011124855372
:100250009E4F0C946E288BEC91E00E949A278EECB6
:1002600091E00C949A2790E080E008950F931F93FB
:10027000009709F487C06115710509F483C00091E6
:1002800004011091050120910601309107010E3FF4
:100290001F4F2F4F3F4F09F066C04FEF5FEFBA017E
:1002A0004093040150930501609306017093070188
:1002B0004091040150910501609106017091070180
:1002C000DC011296ED91FC9180819181A281B38134
:1002D00080934B0290934C02A0934D02B0934E0238
:1002E00084819581A681B7818093470290934802CB
:1002F000A0934902B0934A0280859185A285B38577
:100300008093430290934402A0934502B093460227
:1003100084859585A685B78580933F02909340029A
:10032000A0934102B093420210923B0210923C0211
:1003300010923D0210923E02F9D58BEB97E090931C
:10034000D2018093D1019093D4018093D301DDD465
:10035000009731F421E030E03093500220934F02B7
:100360001F910F91089500910401109105012091B2
:10037000060130910701DB010D931D932D933C93F2
:10038000139796CF8FEF9FEFEBCF8F929F92AF9205
:10039000BF92CF92DF92EF92FF921F93CF93DF93A2
:1003A0004B015C011091520282E090E09093500268
:1003B00080934F0281149104A104B10441F480910F
:1003C0005202811104C080915102C1E08111C0E04C
:1003D000C12CD12C760180915202811106C08091EE
:1003E0005102811102C0CC23D9F083E090E09093B8
:1003F000500280934F02CC2379F1CCE9DFEF111149
:1004000002C00E941F0BCE01DF91CF911F91FF9080
:10041000EF90DF90CF90BF90AF909F908F90089516
:100420006AE070E080E090E00E94362980E1C80E2A
:1004300087E2D81EE11CF11C8FEF88169806A806EB
:10044000B80631F0C1E08C149D04AE04BF0408F07E
:10045000C0E080E08ED4BFCFD0E0C0E0D0CFCF925C
:10046000DF92EF92FF920F931F93CF93DF938F3F13
:10047000910511F008F050C020914F0230915002C8
:100480002330310539F020914F0230915002213054
:10049000310531F424E030E03093500220934F02D4
:1004A0006A017B01EC0182309105A0F011E0AE0100
:1004B000C701B60129D4AB01BC01CE011123F9F06B
:1004C000DF91CF911F910F91FF90EF90DF90CF9030
:1004D0000C94480D8C01000F111F0F521E4FD801B4
:1004E0008D919C91892B11F30E94520D0297F1F688
:1004F000D801ED91FC91CE010995182FD8CF0E941B
:100500006A0D90E080E0DF91CF911F910F91FF90F5
:10051000EF90DF90CF9008958FEF9FEFF4CF80E0C2
:1005200028C4CF93DF9386E090E0909350028093AD
:100530004F0278D4EC01E1EDF1E084E0DF011D929F
:100540008A95E9F70E94B70A1092500210924F0262
:10055000CE01DF91CF91089580915102089580914D
:100560003A02089560930401709305018093060197
:100570009093070190E080E008954F925F926F9210
:100580007F928F929F92AF92BF92CF92DF92EF9223
:10059000FF920F931F93CF93DF9300D0CDB7DEB7B9
:1005A000C0900001D0900101E0900201F0900301A1
:1005B000A7019601609110057091110580911205B7
:1005C000909113050E949325882341F0C092100555
:1005D000D0921105E0921205F09213056FE070E0E1
:1005E00080E090E0A5DD90930F0580930E0543E039
:1005F00050E0BE016F5F7F4F8ADD8FEF9FEFDC0120
:1006000080934C0590934D05A0934E05B0934F05F4
:100610001092050510920405109207051092060528
:10062000609140057091410580914205909143058C
:100630000E9497256230710509F4E3C084F46115C6
:10064000710559F16130710509F43FC01092400500
:100650001092410510924205109243052EC063305E
:10066000710509F4E9C06430710581F720E030E0DC
:1006700040EA50E46091440570914505809146053B
:10068000909147050E947A2687FD17C089819A813B
:100690009093070580930605D9CF89819A8180328E
:1006A000934070F080E090E0DC01809340059093EF
:1006B0004105A0934205B093430560E000E0D2C03D
:1006C00080E090E0A0E8BFE3F0CF109244051092E4
:1006D0004505109246051092470580E090E0A0E0A5
:1006E000B0E48093400590934105A0934205B093F8
:1006F000430561E000E011E082E094DD602F83E0DB
:1007000091DD60E084E08EDD612F85E08BDD60E0CF
:1007100080E098DD60E081E095DDC0900D02D09032
:100720000E02E0900F02F09010028FEFC81AD80A64
:10073000E80AF80AC0920D02D0920E02E0920F026F
:10074000F0921002C114D104E104F10499F48091F3
:10075000110290911202A0911302B091140201961D
:10076000A11DB11D8093110290931202A093130258
:10077000B09314028090150290901602A090170278
:10078000B0901802609111027091120280911302D0
:10079000909114020E94C825A50194010E947E2612
:1007A00020E030E040E85FE40E947E262B013C011F
:1007B000C701B6010E94C825A50194010E947E26AA
:1007C0009B01AC01C301B2010E942F256093090275
:1007D00070930A0280930B0290930C020F900F907B
:1007E000DF91CF911F910F91FF90EF90DF90CF900D
:1007F000BF90AF909F908F907F906F905F904F9041
:10080000089520E030E040EA50E4609144057091A2
:10081000450580914605909147050E947A2687FDFF
:100820004CCF89819A81909305058093040580E0DF
:1008300090E0A0E4B0E439CF109244051092450551
:10084000109246051092470580E090E0A0E8B0E4E1
:100850008093400590934105A0934205B0934305D2
:1008600061E001E010E048CFCF92DF92EF92FF927B
:100870001F93CF93DF93E3EFF1E08BE2DF011D9253
:100880008A95E9F780E090E0A0E8BFEB86A397A304
:10089000A0A7B1A78DEC9CECACE4BEE382A393A32C
:1008A000A4A3B5A387E59CE4AAE6BAE6848395836E
:1008B000A683B78388EB9FEBA5E2B2E5808791879B
:1008C000A287B38781EA9CE6AEE3B8E08487958788
:1008D000A687B7878EE596E3A9E9BFEB808B918B5E
:1008E000A28BB38BA7EEB1E0B383A283E5EDF1E079
:1008F0001196FC93EE938EE291E091838083938333
:100900008283958384839783868391878087938767
:1009100082879587848797878687918B808B87E0EE
:1009200092E015969C938E93149787EF91E013961F
:100930009C938E93129789E092E017969C938E93E6
:100940001697E4E0F5E084E0DF011D928A95E9F76F
:10095000C8E0D5E083E5FE0111928A95E9F711E040
:1009600010935A058091000190910101A09102011C
:10097000B091030188879987AA87BB87C12CD12CA6
:100980007601C394C982DA82EB82FC826FE070E068
:1009900080E090E011DC9F838E831D831CA2109366
:1009A0005905CDA2DEA2EFA2F8A661E082E032DC1A
:1009B00019A71C8E10935805CD8EDE8EEF8EF8A2EF
:1009C00061E083E027DC19A31C8A10935705CD8AC8
:1009D000DE8AEF8AF88E61E084E01CDC198F1C86C9
:1009E00010935605CD86DE86EF86F88A61E085E0B5
:1009F00011DC198B1AAA10935205CBAADCAAEDAA16
:100A0000FEAA69E080E015DC1FAB1CA6109351051F
:100A1000CDA6DEA6EFA6F8AA68E081E00ADC19AB55
:100A200018AE19AE1AAE1BAE109354051CAE1DAE17
:100A30001EAE1FAE10935505109253058FEF9FEF1A
:100A4000DC0180934C0590934D05A0934E05B09327
:100A50004F05DF91CF911F91FF90EF90DF90CF90E6
:100A600008958091080581111DC081E080930805DB
:100A70008091090590910A05A0910B05B0910C0594
:100A80000197A105B10571F480910D05882351F0FE
:100A90006FE070E080E090E04BDB90930F05809377
:100AA0000E05ADDB80912C05811103C081E08093A0
:100AB0002C0580912405811103C081E080932405D9
:100AC00080911C05811103C081E080931C058091F9
:100AD0001405811103C081E08093140580913A05CB
:100AE000811103C081E080933A0580913405811122
:100AF00003C081E08093340508954F925F926F9216
:100B00007F928F929F92AF92BF92CF92DF92EF929D
:100B1000FF920F931F93F89440902A0250902B025B
:100B200060902C0270902D02C0901E02D0901F0287
:100B3000E0902002F0902102452B09F0A6C09B0115
:100B4000AC01241935094609570929013A010091D8
:100B50002602109127022091280230912902480193
:100B60005901840C951CA61CB71C80169106A20680
:100B7000B306A0F4009122021091230220912402D6
:100B8000309125020F5F1F4F2F4F3F4F00932202DE
:100B90001093230220932402309325028092260290
:100BA00090922702A0922802B0922902009122027C
:100BB00010912302209124023091250280922E026E
:100BC00090922F02A0923002B09231020093320232
:100BD00010933302209334023093350260932A023B
:100BE00070932B0280932C0290932D02A30192010B
:100BF00060E47DE083E090E00E946F2C6C0D7D1D31
:100C00008E1D9F1D60931E0270931F028093200211
:100C10009093210200910401109105012091060199
:100C2000309107010F3F1F4F2F4F3F4FF1F00091C1
:100C300004011091050120910601309107010E3F3A
:100C40001F4F2F4F3F4F89F0C0900401D0900501F6
:100C5000E0900601F090070121E08C149D04AE04A1
:100C6000BF0408F420E020933A0278941F910F917A
:100C7000FF90EF90DF90CF90BF90AF909F908F90BC
:100C80007F906F905F904F9008954B015C018418A6
:100C90009508A608B708A3019201261B370B480B3D
:100CA000590B6415750586059705E0F082169306C5
:100CB000A406B50640F420E030E0A90181149104B7
:100CC000A104B104A1F460E47DE083E090E00E941F
:100CD0006F2CA7019601261B370B480B590BCA0135
:100CE000B901C3CF82169306A406B50660F7A50125
:100CF000940160E47DE083E090E00E946F2C6C0D35
:100D00007D1D8E1D9F1DB1CFF8CECF93DF9300D0F8
:100D100000D0CDB7DEB71C821B821A8219821092D6
:100D20003602109237021092380210923902BE0138
:100D30006F5F7F4FCE0103960E94732369817A8192
:100D40008B819C810E94691C009761F4BE016F5FDA
:100D50007F4FCE0103960E947F2369817A818B8128
:100D60009C812CD50F900F900F900F90DF91CF9119
:100D70000895FF920F931F93CF93DF93082F60E0A6
:100D800070E0CB010E943629FF24F3940E94541B8B
:100D9000EC01892B89F010E0CE3F8FEFD80769F086
:100DA000002361F160E070E0CB010E94362981E010
:100DB00090E0892B59F322C011E023D5EC01892B57
:100DC00021F0CE3F8FEFD80759F711111EC011E067
:100DD000229609F410E00E94051BEC01892B21F0FA
:100DE000CE3F8FEFD807E1F6111111C011E0CE3FD1
:100DF0008FEFD80709F410E001110BC0CE01DF918D
:100E0000CF911F910F91FF90089511E0E4CF11E071
:100E1000F3CF60E070E0CB010E9436291F25812FBF
:100E200090E0C7CFCF93DF9380913A02882321F0DF
:100E300060E070E0CB014CD635D6D0E0C0E0892B25
:100E400071F06AE070E080E090E00E94362981E075
:100E500090DF28D62196C03D27E0D20781F727D61C
:100E60000E94BD1C109252021092510210924B022D
:100E700010924C0210924D0210924E0210924702B4
:100E8000109248021092490210924A0210924302B4
:100E900010924402109245021092460210923F02B4
:100EA00010924002109241021092420210923B02B4
:100EB00010923C0210923D0210923E024EEF5FEF04
:100EC0006FEF7FEF4093040150930501609306019B
:100ED0007093070110923A02EEE2F2E028E0DF019F
:100EE0001D922A95E9F710922A0210922B02109275
:100EF0002C0210922D0210922602109227021092BC
:100F000028021092290210922202109223021092BB
:100F100024021092250210921E0210921F021092BB
:100F2000200210922102DF91CF91089510925E026B
:100F300010925F02109260021092610210925D02A4
:100F4000809166029091670290935C0280935B02AD
:100F500010925A02109259021092550210925602A3
:100F6000109257021092580210926302109262027D
:100F700090E080E00895CF92DF92EF92FF920F937E
:100F80001F93CF938C01892B09F055C020916602E5
:100F90003091670280915B0290915C024091660201
:100FA0005091670250935C0240935B022817390707
:100FB00081F010925A02109259021092550210922A
:100FC0005602109257021092580210926302109229
:100FD00062028091660290916702019761F58091AB
:100FE000620290916302892B21F4809108018111A2
:100FF00012C080916202909163020197E1F48091A6
:10100000550290915602A0915702B0915802019753
:10101000A105B10581F4109255021092560210926A
:101020005702109258021092080182E090E09093CB
:101030006302809362028091660290916702019739
:1010400009F01CC180917C0290917D02801791076C
:1010500009F014C18091780290917902A0917A02EE
:10106000B0917B02009709F409C120917702211108
:101070000DC0409178025091790260917A0270918E
:101080007B02452B462B472B09F4F8C020916202C6
:10109000309163022230310509F0F0C020915902ED
:1010A0002111ECC0FC01C080D180E280F3808091EE
:1010B0005D02882309F4D3C08091690290916A028D
:1010C000892B09F4FDC02091690230916A0281E008
:1010D0002230310509F080E02091690230916A02E6
:1010E000C1E02130310549F02091690230916A0256
:1010F000C1E02230310509F0C0E0882309F456C070
:1011000020917302309174024091750250917602E1
:10111000C701B6010E947A2687FD14C02091730290
:1011200030917402409175025091760260915E0296
:1011300070915F0280916002909161020E949325FC
:1011400087FD22C020917302309174024091750294
:1011500050917602C701B6010E947A26181634F51E
:101160002091730230917402409175025091760281
:1011700060915E0270915F028091600290916102C5
:101180000E949325811112C080916B0290916C0294
:10119000A0916D02B0916E02892B8A2B8B2B19F4D2
:1011A00081E080935A0281E080935902CC2309F4B4
:1011B00056C0209173023091740240917502509193
:1011C0007602C701B6010E94932587FF14C02091C3
:1011D00073023091740240917502509176026091D1
:1011E0005E0270915F0280916002909161020E94A4
:1011F0007A2687FF22C020917302309174024091B9
:10120000750250917602C701B6010E9493258111A3
:1012100026C0209173023091740240917502509162
:10122000760260915E0270915F02809160029091FF
:1012300061020E947A26181694F480916B029091B4
:101240006C02A0916D02B0916E02892B8A2B8B2BC0
:1012500019F481E080935A0281E08093590281E081
:1012600090915902911180E080935D02C0925E02DC
:10127000D0925F02E0926002F0926102012B09F0CD
:1012800067C18091620290916302892BD9F4109218
:1012900068021092590280910801882379F082E057
:1012A00090E0909363028093620210920801209173
:1012B00066023091670281E0232BE9F080E01BC0D9
:1012C00081E00ACF1092080180916802882349F0DA
:1012D00010925A02109263021092620210926802F7
:1012E000EDCF8091660290916702892BE1F08091A9
:1012F0005902109259022091620230916302223009
:10130000310509F45EC088F42115310509F448C09F
:101310002130310509F4F3C010925A02109259029B
:101320001092680238C081E0E6CF2330310509F41D
:10133000B1C02430310581F74091550250915602D9
:101340006091570270915802411551056105710570
:1013500061F0415051096109710940935502509360
:101360005602609357027093580240915502509173
:1013700056026091570270915802452B462B472B1D
:10138000D9F420916402309165022130310509F0D1
:1013900046C010925A0210926302109262020CC070
:1013A00080910801882341F082E090E090936302ED
:1013B00080936202109208011092530280915A02A7
:1013C000CEC08823C9F380916B0290916C02A091EA
:1013D0006D02B0916E02181619061A061B060CF063
:1013E0007DC08091660290916702019709F076C0F6
:1013F00080916B0290916C02A0916D02B0916E028F
:101400008093550290935602A0935702B0935802CE
:1014100083E090E09093630280936202CDCF40918D
:101420006F02509170026091710270917202452BAF
:10143000462B472BA9F010925A0280916F0290918F
:101440007002A0917102B091720280935502909344
:101450005602A0935702B093580281E090E0DACF91
:10146000882399F08091090190910A01A0910B01C4
:10147000B0910C018093550290935602A0935702AD
:10148000B093580284E090E0C5CF10925A0282E0F7
:1014900090E0C0CF8091550290915602A0915702E2
:1014A000B09158020097A105B10559F00197A10923
:1014B000B1098093550290935602A0935702B093BE
:1014C00058028091550290915602A0915702B09116
:1014D0005802892B8A2B8B2B09F06ECF8091090142
:1014E00090910A01A0910B01B0910C01892B8A2BDC
:1014F0008B2B09F44ECF81E080935A02B3CF4091F9
:101500005502509156026091570270915802411550
:1015100051056105710561F0415051096109710979
:1015200040935502509356026093570270935802AD
:1015300040915502509156026091570270915802A5
:10154000452B462B472B09F037CF8111C7CF9FCFB3
:1015500080915302882309F431CF80915402CF91B6
:101560001F910F91FF90EF90DF90CF900895109210
:101570005E0210925F02109260021092610210925D
:101580005D02109263021092620210925C0210924D
:101590005B0210927D0210927C0210925A0210920D
:1015A0005902109255021092560210925702109250
:1015B0005802109254021092530210927802109224
:1015C000790210927A0210927B02109277021092A6
:1015D000730210927402109275021092760288EED5
:1015E00093E0A0E0B0E08093090190930A01A093FA
:1015F0000B01B0930C0110926F02109270021092C6
:1016000071021092720210926B0210926C02109290
:101610006D0210926E0210926A021092690281E0CD
:10162000809308011092680210926702109266027D
:10163000109265021092640290E080E0089580911B
:10164000660290916702892B19F580910801882321
:1016500051F080916802811106C081E080935402AC
:10166000809353020895209168023091080181E02F
:1016700090E0332311F090E080E030E08223932368
:10168000892B21F01092540281E0EACF109253028C
:10169000089582E090E0FA01918380838FEF9FEFBD
:1016A0000895CF93DF93EA01009711F00E94DA1DAD
:1016B0001982188290E080E0DF91CF910895DB01DC
:1016C000009719F48FEF8C9308952EEF2C930F96BB
:1016D0008F30910508F033C0FC01EF58F44F0C94A3
:1016E000DC2C9D0B9B0B990B970B950B910B930B84
:1016F0008F0B8D0B8B0B880B840B800B860B9F0B3A
:1017000080E311968C93089589E2FBCF82E2F9CFB2
:1017100011961C92089583E2F4CF81E2F2CF81E129
:10172000F0CF87E2EECF8AE2ECCF80E1EACF84E22D
:10173000E8CF88E2E6CF86E2E4CF81E3E2CF80E241
:10174000E0CF80918A0290918B02089590938B0252
:1017500080938A0208958091890208959091890268
:10176000892B809389020895982F90958091890202
:101770008923809389020895809188020895809139
:1017800086029091870208956115710559F0FB0159
:1017900030E020E070E060E02417350719F06115B3
:1017A000710511F0CB010895A081B181A817B90787
:1017B00009F4BF012F5F3F4F3696EECF80918C0228
:1017C00081111CC062D268D290937F0280937E0206
:1017D0000E94DF150E94F11590938302809382028C
:1017E0000E946F1A0E94761A909381028093800261
:1017F00081E080938C0290E080E0089584EF9FEF79
:1018000008958F929F92AF92BF92CF92DF92EF9204
:10181000FF920F931F93CF93DF93CDB7DEB72A9735
:101820000FB6F894DEBF0FBECDBF1A861986188694
:101830001F821E821D821C821B821A821982809145
:101840008C0207EF1FEF882309F49CC08E010D5F07
:101850001F4F9E012B5F3F4FAE01495F5F4FBE019F
:10186000675F7F4F90E080E00E94EF1B8C01009744
:1018700021F00596029708F0DBC029853A852115ED
:10188000310509F402C1ED80FE804B815C81B70116
:10189000640F751F8F8198858617970708F4F5C028
:1018A000E20EF31ED7019C91903C09F07FC04230BC
:1018B000510508F47BC011968C9140918A02509199
:1018C0008B02452B09F49CC0913F08F071C02CE1BC
:1018D000290F2D3008F48BC02DE2290F203108F498
:1018E00089C0903C21F48150823008F483C088E3A1
:1018F000890F8B3008F481C09FE5C92E9BE0D92E5B
:10190000E9E4FBE06D817E81AE014F5F5F4F898529
:101910009A8509955C01C114D104A1F189809A804E
:101920008114910479F18B819C818815990508F4C3
:1019300087C010E000E04B815C8170E060E0C7018F
:101940000E94042D01151105E9F449815A81698528
:101950007A858D819E81680F791FC501F6010995F1
:10196000E980FA800D811E812F81388549855A854D
:101970006FEF7FEF81E090E00E948B1B8C01892B41
:1019800009F056C0C8012A960FB6F894DEBF0FBE04
:10199000CDBFDF91CF911F910F91FF90EF90DF901E
:1019A000CF90BF90AF909F908F90089580E085CFAB
:1019B00030E020E0220F331FF901E258FD4F019083
:1019C000F081E02D309709F497CF892F90E00995A9
:1019D000009709F491CFDC011296ED91FC911397D9
:1019E0001496CD90DC90309709F08CCF1FC021E089
:1019F00030E0E0CF22E030E0DDCF23E030E0DACFAE
:101A0000D12CC12CE1E5FBE09F3F09F07BCFE091B9
:101A10007E02F0917F02309721F4C90104EF1FEF9D
:101A20000CC08FEF90E009950097A9F604EF1FEF27
:101A300089859A85009709F4A5CF0E94DA1DA2CF67
:101A40000E94B81C8C0189859A850E94DA1D70E07D
:101A500060E0C4010E94511C98878F830E94881BFC
:101A60009E838D836F8178856115710559F0C8015A
:101A70000E94661F9A87898706EF1FEF892B09F05E
:101A800058CF59CF08EF1FEF56CF08EF1FEFD0CF39
:101A900020918C02222319F020E00C94F61587EF98
:101AA0009FEF089580918A0290918B0208950E9481
:101AB0007B1A0E94D519F5D0EEE7F2E088E0DF014D
:101AC0001D928A95E9F710928C0290E080E00895CB
:101AD0000C94321821E040E050E0BA010C94F61565
:101AE00086E090E0FA019183808390E080E00895A1
:101AF00047E050E061E371E047CEDF92EF92FF9262
:101B00000F931F93CF93DF938A01EC01C60FD71F6A
:101B1000E0909002F0909102D9800E94A01CD8160B
:101B2000190678F082E090E0F801918380838EEFCF
:101B30009FEFDF91CF911F910F91FF90EF90DF907A
:101B40000895EF2841F482E090E0F80191838083CA
:101B500084EF9FEFEECF898180938F0290E0019612
:101B6000F8019183808390E080E0E3CFCF93DF930F
:101B7000EA010E94E318882321F00E94AD1C0E9414
:101B8000E41882E090E0998388838BEF9FEFDF91E8
:101B9000CF910895CF93DF93EB0186E0FB01119283
:101BA0008A95E9F78FEF8883D6DD8983E5DD8A831F
:101BB000E6DD9D838C83DF91CF910895CF93DF93F2
:101BC000EA010E94E618811109C082E090E0998341
:101BD000888385EF9FEFDF91CF91089590E080E0BB
:101BE000B5DD81E090E09983888390E080E0F3CFD9
:101BF0000F931F93CF93DF93EA018C01060F171FFA
:101C00000E94E61881110BC082E090E099838883DE
:101C100085EF9FEFDF91CF911F910F910895F8010C
:101C20008181823038F082E090E0998388838EEF62
:101C30009FEFF0CF81E090E089DD88E090E099832C
:101C4000888390E080E0E6CFCF93DF930097D1F4D4
:101C5000EB01FB01329686E0DF011D928A95E9F7E0
:101C60008FEF888385E089831A820E94A01C8B8372
:101C70000E949F1C9D838C8381E08E838F83DF91E4
:101C8000CF910895DF91CF911ACD88E79DE0909391
:101C90008E0280938D02089580918D0290918E0224
:101CA000089510928E0210928D02089580919002F4
:101CB000909191020895411105C06115710581054A
:101CC000910561F06093900270939102809392026B
:101CD000909393024093940281E0089580E00895E8
:101CE000FF920F931F93CF93DF938A01EC01C60FEE
:101CF000D71FF9800E94A01CF816190668F082E030
:101D000090E0F801918380838EEF9FEFDF91CF9178
:101D10001F910F91FF9008956C817D818E819F812D
:101D20004B81C9DF811108C082E090E0F801918306
:101D3000808384EF9FEFEACF898180938F0290E0C8
:101D40000196F8019183808390E080E0DFCFCF930C
:101D5000DF93EA01FC01E60FF71F6481758186813C
:101D600097814381A8DF811109C082E090E09983C7
:101D7000888384EF9FEFDF91CF91089581E090E019
:101D80009983888390E080E0F6CFE0E9F2E040813B
:101D9000518162817381480F511D611D711D408306
:101DA0005183628373830895CF93C0918F024C2F28
:101DB00050E0609190027091910201960E94FB2C7C
:101DC0008C2FE3DF10928F02CF910895009799F442
:101DD00080919002909191022FEFFB012083892B3B
:101DE00059F020918F0230E02F5F3F4F24173507C5
:101DF00019F4CB01D9CF63CC0895009799F4809161
:101E00009002909191022FEFFB012083892B59F0D2
:101E100020918F0230E02F5F3F4F2417350719F4D0
:101E2000CB01C2CF4CCC089523E1AC01249FC0016B
:101E3000259F900D1124E0919902F0919A02E80FEC
:101E4000F91F238134812250310981E0223031058C
:101E500008F080E008950F931F93CF93DF930091D4
:101E60009B0210919C02D0E0C0E080E00C171D079F
:101E700049F491E0811190E0892FDF91CF911F917A
:101E80000F9108958111F5CFCE01CEDF2196EECFCF
:101E9000A0919902B0919A02109729F120919B028A
:101EA00030919C0282179307F0F453E1589F900100
:101EB000599F300D1124A20FB31FED91FC91119782
:101EC000309789F012968C91681768F48DE0689FBE
:101ED000E00DF11D112480819181892B21F081E099
:101EE0009281491708F080E008959C0143E1429FE8
:101EF000C001439F900D1124E0919902F0919A0244
:101F0000E80FF91F8385823091F481E090E06581CC
:101F1000768140910D0150910E016417750711F4FF
:101F200090E080E0892B19F081E0232B09F080E01C
:101F30000895FC01A081B1818DE0689FA00DB11DC5
:101F4000112413964D915C9185859685489F90014B
:101F5000499F300D589F300D1124C9010196611120
:101F600003C0478144FD04960895EF92FF920F93BA
:101F70001F93CF93DF93EA01FC01E60FF71F028165
:101F80001381E480F5804F2D6E2DC80181DF811112
:101F90000DC082E090E0998388838EEF9FEFDF9100
:101FA000CF911F910F91FF90EF900895C8013CDFF2
:101FB000882339F082E090E09983888388EF9FEF4F
:101FC000EECF1093140100931301E0921501F092EB
:101FD000160181E090E09983888390E080E0DFCF74
:101FE000CF92DF92EF92FF920F931F93CF93DF93E5
:101FF0007A01EC01C60FD71FC0901301D0901401D5
:102000000091150110911601412F602FC60140DF8C
:10201000811110C082E090E0F701918380838AEF04
:102020009FEFDF91CF911F910F91FF90EF90DF9085
:10203000CF900895C601F8DE882341F082E090E059
:10204000F7019183808388EF9FEFEBCF4C815D8117
:102050006E817F819A8189818F3F41F082E090E09B
:10206000F701918380838EEF9FEFDBCFE3E1EC9D5F
:102070009001ED9D300D1124E0919902F0919A02AA
:10208000E20FF31F0190F081E02D2DE0029FE00DA3
:10209000F11D11240190F081E02D27E0129FE00D49
:1020A000F11D1124808391838B8182834383548328
:1020B000658376831F5F1093160181E090E0F7013E
:1020C0009183808390E080E0ACCFEF92FF920F93FA
:1020D0001F93CF93DF937A018C01060F171FC091D6
:1020E0009902D0919A02209781F021E030E0F80126
:1020F0008281938140919B0250919C0284179507A5
:1021000010F030E020E0232B71F482E090E0F70142
:10211000918380838EEF9FEFDF91CF911F910F917D
:10212000FF90EF90089543E1489F9001499F300D43
:102130001124C20FD31F78DE882341F082E090E0A3
:10214000F7019183808388EF9FEFE6CFF801248128
:10215000358120383105C8F687818111D6CF41817C
:10216000842F90E08F7E009741F082E090E0F701AD
:102170009183808386EF9FEFCFCF4F833E832D8364
:10218000268128871986223010F421E0288721E053
:1021900030E0F70131832083BFCF88E090E0FA017F
:1021A0009183808390E080E00895FB018FEF80832E
:1021B00081E181838FEF9FEF9383828380E890E0BA
:1021C00095838483168217820895FB018FEF8083A5
:1021D00091E0918382839383848384E3858381E088
:1021E00090E0978386830895DF92EF92FF920F939A
:1021F0001F93CF93DF93EA01FC01E60FF71F818164
:10220000813071F082E090E0998388838FEF9FEFB7
:10221000DF91CF911F910F91FF90EF90DF90089584
:1022200082819381D4802581E680F7800091990294
:1022300010919A020115110539F482E090E099831A
:1022400088838CEF9FEFE4CF40919B0250919C02DA
:102250008417950738F082E090E0998388838EEFA9
:102260009FEFD6CF892B39F082E090E09983888365
:1022700086EF9FEFCDCF8D2D8D7FB1F72130A1F768
:1022800081E0D11006C091E0E916F10431F080E060
:1022900004C0E2E0EE16F104D0F3882329F390E0C5
:1022A00080E0C2DD882339F082E090E09983888362
:1022B00088EF9FEFADCFF801D38681E08487F68663
:1022C000E586108A178681E090E09983888390E004
:1022D00080E09ECF4CE050E06BE571E055CA8F92F4
:1022E0009F92BF92CF92DF92EF92FF920F931F9334
:1022F000CF93DF93EA01FC01E60FF71F8281938100
:102300000481B580E0919902F0919A02309791F49E
:1023100082E090E0998388838CEF9FEFDF91CF91EB
:102320001F910F91FF90EF90DF90CF90BF909F9003
:102330008F90089520919B0230919C028217930701
:1023400038F082E090E0998388838EEF9FEFE6CFAC
:1023500023E1289F6001299FD00C1124EC0DFD1D65
:10236000E080F180E114F10499F28281081748F7C6
:102370008DE0089F80011124E00EF11EF70180819D
:102380009181892B29F6BB20E1F2F7E0BF9E400145
:102390001124C4010E94A11DF70191838083E09163
:1023A0009902F0919A02EC0DFD1D0190F081E02D53
:1023B000E00FF11F80819181009739F482E090E075
:1023C000998388838DEF9FEFA9CFA40170E060E02F
:1023D0000E94042D8091990290919A02C80ED91EF4
:1023E000F60180819181080F191FF801B28281E006
:1023F00090E09983888390E080E090CFAF92BF9285
:10240000CF92DF92FF920F931F93CF93DF93EA0156
:10241000FC01E60FF71F82819381F48000919902FD
:1024200010919A020115110581F482E090E09983E0
:1024300088838CEF9FEFDF91CF911F910F91FF90D9
:10244000DF90CF90BF90AF90089520919B02309184
:102450009C028217930738F082E090E0998388838A
:102460008EEF9FEFE8CF2FEF2F0D2C3FA8F723E142
:10247000289F6001299FD00C11240C0D1D1DF8010F
:1024800080819181892B89F6FDE0FF9E5001112406
:10249000C5010E94A11DF80191838083E0919902FA
:1024A000F0919A02EC0DFD1D80819181009739F425
:1024B00082E090E0998388838DEF9FEFBCCFA501E8
:1024C00070E060E00E94042DE0919902F0919A0280
:1024D000EC0DFD1DF28281E090E09983888390E00D
:1024E00080E0A9CFCF92DF92EF92FF920F931F93DC
:1024F000CF93DF93860F971FFC0102811381809198
:10250000990290919A02892B81F082E090E0FA0181
:10251000918380838CEF9FEFDF91CF911F910F917B
:10252000FF90EF90DF90CF900895C801B0E0A0E059
:102530000197A109B1098F3F9F4FA105B10540F057
:1025400082E090E0FA01918380838EEF9FEFE4CFE9
:102550007A0183E1809F6001819FD00C1124C60124
:102560000E94A11DEC01009741F482E090E0F70188
:10257000918380838DEF9FEFCFCFA60170E060E065
:102580000E94042DD0939A02C093990210939C024A
:1025900000939B0290E080E02FEF3FEF41E061E08D
:1025A00070E08017910741F481E090E0F70191839A
:1025B000808390E080E0B0CF3A8B298B1B864C87DC
:1025C0007E876D87188A1F8601966396EACFEF9201
:1025D000FF921F93CF93DF93EC0110E0F12CE12CDD
:1025E0006A811617A8F070E0660F771FAE014F5E84
:1025F0005F4FC7010E94061E009721F02FEF3FEFAB
:102600003A8B298BDF91CF911F91FF90EF90089526
:10261000612FCE018EDC61E070E00E94511CE81653
:10262000F90608F47C011F5FDBCFF8942091970234
:102630003091980281E02115310509F080E0232BCB
:1026400009F0789408952F923F924F925F926F9283
:102650007F928F929F92AF92BF92CF92DF92EF9232
:10266000FF920F931F93CF93DF933C01660E771E6B
:10267000F301828193814C01B12CA12CC09199026C
:10268000D0919A02209769F021E030E060919B029E
:1026900070919C028617970710F030E020E0232B02
:1026A000D1F482E090E0FA01918380838EEF9FEF76
:1026B000DF91CF911F910F91FF90EF90DF90CF901E
:1026C000BF90AF909F908F907F906F905F904F9052
:1026D0003F902F9008958092170190921801A09238
:1026E0001901B0921A0163E1689F9001699F300D52
:1026F0001124C20FD31FF3018181833040F082E0A7
:1027000090E0FA019183808386EF9FEFD1CF2A0179
:102710002B813C81232BF1F4288139819F8191FF0A
:102720002EC0232B09F46FC020919E029A81422F64
:10273000490F5527551FBA0141E050E06138710536
:1027400014F050E040E0452B09F45DC02A87920F59
:1027500090939E028150823008F481C066DF882306
:1027600009F4D8C0F3018181813009F48DC008F4E7
:102770007BC0823009F4C6C090E080E0ADC0232B5E
:1027800009F441C020919D029A81E22FE90FFF27B1
:10279000FF1F41E050E0ED3FF10514F050E040E054
:1027A000452B89F12A87920F90939D02D3CFA08168
:1027B000B181A20FB31F11966C91060F111D0196E6
:1027C000295F3F4F8417950794F38D859E85089F59
:1027D0001001099F300C189F300C1124C114D10432
:1027E000D1F48F8184FF17C00E949F1CF5E02F0E4B
:1027F000311C21E08215930508F420E0A701435F16
:102800005F4F21110EC082E090E0F201918380833E
:1028100087EF9FEF4DCF0E949F1C2FEF221A320AA5
:10282000E8CF88819981E80EF91EF70114830383AC
:10283000FFEFCF1ADF0A7A018A818C151D0409F097
:102840000CF48CCFE881F981EE0DFF1D428150E040
:1028500030E020E010E000E090E080E0B3CFF12C29
:10286000E12CD12CC12CE8CF81E090E09C838B83BC
:10287000F2DA882309F480CF81E090E00E94A60B71
:1028800080E40E94B40B78CF89899A89019661F01F
:1028900083E090E09C838B8382E090E00E94A60B13
:1028A00080E40E94AE0B68CF8D819E8120910D0146
:1028B00030910E0182179307D1F46091110170914C
:1028C0001201AE014F5E5F4F80910F019091100198
:1028D0000E94251F0097E1F2789422E030E0F20197
:1028E00031832083892B99F08DEF9FEFE1CE8928EA
:1028F0008A288B2869F6892B59F6CE0168DE188A5A
:102900001F86E8CF82E090E09C838B8335CF90E0F8
:1029100080E0CECE82E090E0F2019183808385EF6B
:102920009FEFC6CE8F929F92AF92BF92CF92DF92CF
:10293000EF92FF920F931F93CF93DF93EA018C01E5
:10294000060F171FF8018181833098F082E090E034
:102950009983888386EF9FEFDF91CF911F910F912D
:10296000FF90EF90DF90CF90BF90AF909F908F90AF
:1029700008958091990290919A02892B61F081E0EB
:1029800090E020919B0230919C02232B11F490E067
:1029900080E0892B39F482E090E0998388838EEF80
:1029A0009FEFDACF42DE882309F4DFC0F80181818E
:1029B000813009F495C0E8F0823099F420919B02AF
:1029C00030919C02E0919902F0919A0290E080E0AF
:1029D00041E050E02817390709F0BDC03CDA811109
:1029E00017C0789481E090E09983888390E080E03C
:1029F000B3CF20919B0230919C02E0919902F0911B
:102A00009A0290E080E041E050E02817390741F455
:102A100081E090E00E94A60B80E40E94B40BE1CF1D
:102A200063817481672B11F05483438301967396FD
:102A3000ECCFE0919902F0919A02E00FF11F23810F
:102A4000348122303105D9F4218932892F3F3F4F1B
:102A5000B1F42581368140910D0150910E0124176A
:102A6000350761F5AF014F5E5F4F609111017091C5
:102A7000120180910F01909110010E94251FEFEF2C
:102A8000CE1ADE0AEE0AFE0A0D5E1F4F40919B022F
:102A900050919C0270E060E0C416D506E606F70689
:102AA0003CF5009731F27894892B09F49BCF82E0B2
:102AB00090E0998388838DEF9FEF4ECFC114D104AE
:102AC000E104F104E1F6232BD1F6CF0180DDE091A2
:102AD0009902F0919A02E00FF11F108A1786CFCF6A
:102AE00010E000E090E080E0C12CD12C7601CECF48
:102AF0000097C9F610E000E0812C912C540183E08E
:102B0000E82EF12C1AC0E0919902F0919A02E00FA0
:102B1000F11F83819481029749F4F482E38282E079
:102B200090E00E94A60B80E40E94AE0BFFEF8F1A8C
:102B30009F0AAF0ABF0A0D5E1F4F80919B029091C2
:102B40009C02B0E0A0E088169906AA06BB06DCF25B
:102B500090E080E0A8CF638174816230710511F448
:102B6000548343830196739635CF82E090E0998336
:102B7000888385EF9FEFF0CE0097B9F48FEFFB01CC
:102B80008083209117013091180143E1429FC001D9
:102B9000439F900D1124E0919902F0919A02E80F61
:102BA000F91F8285FB01818308950C945F0B88E0F7
:102BB00090E0FA019183808390E080E00895109284
:102BC000980210929702E9E9F2E086E0DF011D9297
:102BD0008A95E9F78AE691E19093960280939502AF
:102BE0000895809195029091960208952F923F92B8
:102BF0004F925F926F927F928F929F92AF92BF920D
:102C0000CF92DF92EF92FF920F931F93CF93DF93B8
:102C1000CDB7DEB72F970FB6F894DEBF0FBECDBF8E
:102C2000F894E0919702F09198023196F09398020F
:102C3000E093970278944090990250909A02411440
:102C4000510409F40CC2E0919B02F0919C02EF2B1D
:102C500009F405C22D8749875A876B877C87988737
:102C60008F831201B12CA12C10E000E080919B0217
:102C700090919C02A816B90618F40115110529F1C6
:102C8000F8948091970290919802019790939802FE
:102C9000809397027894C8012F960FB6F894DEBF00
:102CA0000FBECDBFDF91CF911F910F91FF90EF909D
:102CB000DF90CF90BF90AF909F908F907F906F905C
:102CC0005F904F903F902F9008957101E418F508A0
:102CD000D10117968C91179781FD54C013968D9151
:102CE0009C911497039709F04DC015968D919C9176
:102CF000EF81F8858E179F0709F044C0B50190E079
:102D000080E07ED48A832091990230919A023D839B
:102D10002C833D85332309F44CC04C815D81452BC8
:102D200009F49AC180919B0290919C02A816B90661
:102D300008F092C1C501D9D88823E9F06C817D8162
:102D40006E0D7F1D7D836C83DB011F968D919C91A1
:102D5000892B89F0D12CC12CF12CE12CAC81BD81C7
:102D600012968C9112978E151F0409F094F45096C8
:102D70001C921E921F972A81222321F0B50190E018
:102D800080E040D43FEFA31AB30A43E1240E311C84
:102D90006DCFAC81BD81ED91FC91EC0DFD1D858168
:102DA000968108D7BFEFEB1AFB0AEDE0CE0ED11CDF
:102DB000D5CFEC81FD81309709F44EC180919B0203
:102DC00090919C02A816B90608F046C1EE0DFF1DB1
:102DD000FF87EE87C50189D88B83882339F1AE85BB
:102DE000BF851F968D919C915097019621E01D966D
:102DF0004D915C918417950709F020E02E8319828C
:102E0000712C10E000E0AE85BF8512968C9178168B
:102E100008F45DC0EE85FF858785908901966585FC
:102E200076850E948A2C908B8787A5CFB1E0BE83E0
:102E3000E6CF992493946BC084D6F601968385835C
:102E400082C0D601ED90FC90B7E06B9EE00CF11CC7
:102E50001124F7016381748180818F3F61F121E04A
:102E600030E002C0220F331F8A95E2F7C901092E14
:102E7000000CAA0BBB0BFB01408151816281738165
:102E800084239523A623B72321E0892B8A2B8B2B20
:102E900009F420E0D4012C93D70111968C91F6010E
:102EA00023853485820F932F911D880E991E1486D9
:102EB000138663949BC0418150E0C4010E94FB2CA7
:102EC000EBCF998206EF1FEFC5C01982C3C0F9810D
:102ED000F111A0CFEDE07E9E70011124AE85BF857B
:102EE000CD90DC90CE0CDF1C13D49D838C83BB81F2
:102EF000BB2309F49ECF81E0EE85FF8527853089CD
:102F0000232B09F080E0982E882309F458C0672D00
:102F10008E859F850ED8D60118969C938E93179711
:102F200061E070E0BED4EE85FF85218932892F3FB4
:102F3000320709F481CFBC01C901C8D7D601169662
:102F40009C938E931597D60115968D919C9116970B
:102F5000009709F4B6CFEC81FD818E0F9F1F1A9662
:102F60009C938E931997AE85BF85ED91FC91119737
:102F7000EE0EFF1EF70121853285148613861A9600
:102F80008C91870DD9018D93711016C0EE85FF8548
:102F9000878184FF11C049855A856B857C85F9013D
:102FA0004183528363837483F701838594850496F8
:102FB000A80FB91F14861386F701B287A187D6011F
:102FC00015968D919C911697892B09F443C0EE8537
:102FD000FF852581368180910D0190910E01281782
:102FE000390779F019968D909C90612CD601129634
:102FF0008C911297681608F424CF1A969C928E92A0
:103000001997BE81BB2309F460CF61E070E0F6013F
:103010008781908546D4D6011796ED90FC9018973D
:1030200015964D915C91E1E0F0E0BA81BB2311F07F
:10303000F0E0E0E00C811D819C01B5018827992713
:103040008E1B9F0B68D38C01892B21F0F6018581A3
:103050009681B0D57394D7CE0FEF1FEF8CCE10E0D2
:1030600000E00ECE2F923F924F925F926F927F922E
:103070008F929F92AF92BF92CF92DF92EF92FF9288
:103080000F931F93CF93DF938091990290919A02AF
:1030900010E000E0892BA9F0C8DA0AEF1FEF8823BF
:1030A00081F020909B0230909C02C0919902D091B7
:1030B0009A02D12CC12C10E000E02C143D04A9F49C
:1030C0007894C801DF91CF911F910F91FF90EF90FD
:1030D000DF90CF90BF90AF909F908F907F906F9038
:1030E0005F904F903F902F900895C6010E94750FFA
:1030F000882309F18B819C810397E9F48F85988956
:10310000892BC9F0B60190E080E07AD221E030E06E
:10311000882311F030E020E044245524421A530A59
:10312000B12CA12C912C812C8A818815190409F0CD
:1031300038F4188A1F864FEFC41AD40A6396BDCF9D
:10314000E881F981EA0DFB1D85819681892BA1F12A
:1031500061E070E087819085A4D33C01D9D28C01D5
:10316000E881F981EA0DFB1D8185928525813681F3
:10317000200F311FAC01421B530B9A014781508530
:10318000421B530B70E060E00E94042DE881F9813E
:10319000EA0DFB1DE780F084458156819301B6015D
:1031A000C201B9D28C01892B39F0E881F981EA0D8D
:1031B000FB1D85819681FED45FEF851A950A8DE00F
:1031C000A80EB11CB1CF31CA789408952F923F92C6
:1031D0004F925F926F927F929F92AF92BF92CF92E7
:1031E000DF92EF92FF920F931F93CF93DF9300D064
:1031F00000D000D0CDB7DEB70091990210919A02AD
:10320000992493940115110509F43EC0A0909B02E6
:10321000B0909C020ADA982E8823B1F110929A029B
:103220001092990210929C0210929B0210929D02A1
:1032300010929E028FEF9FEFDC0180931701909315
:103240001801A0931901B0931A0178947AD31E83C0
:103250000D83C12CD12C7601C501B0E0A0E089839B
:103260009A83AB83BC8322242A94322C89819A814D
:10327000AB81BC81C816D906EA06FB06F4F0C8018A
:1032800099D480E40E94B40B892D26960FB6F89449
:10329000DEBF0FBECDBFDF91CF911F910F91FF9089
:1032A000EF90DF90CF90BF90AF909F907F906F9006
:1032B0005F904F903F902F900895AD81BE811596FD
:1032C0008D919C91169720910D0130910E018217DE
:1032D0009307D1F451968D919C91E6D5ED81FE81B5
:1032E00080819181B12CA12C412C512C3201892B50
:1032F00089F5BFEFCB1ADB0AEB0AFB0AED81FE81F1
:103300007396FE83ED83B2CFC114D104E104F104BE
:1033100029F7892B19F7ED81FE81818992898F3FE9
:10332000980709F021D5AD81BE8152963C922E922C
:103330005197D4CF8A0D9B1DDC018D919C910097F4
:1033400009F038D4BFEF4B1A5B0A6B0A7B0AEDE039
:10335000AE0EB11CAD81BE818D919C9111971296DC
:103360004C9150E070E060E0441655066606770622
:103370000CF320D4BECFCF93DF93EA0127DF811176
:1033800009C082E090E09983888385EF9FEFDF9109
:10339000CF91089581E090E00E94A60B81E090E03B
:1033A0009983888390E080E0F2CF10DF109296023C
:1033B00010929502089542E050E063EA71E00C94A7
:1033C000C40BFF920F931F93CF93DF938A01EC01FD
:1033D000C60FD71FF980B4D20897F816190671F0F6
:1033E00068F082E090E0F801918380838EEF9FEF98
:1033F000DF91CF911F910F91FF9008956C817D8196
:103400008E819F814B810E945B0E811108C082E0FA
:1034100090E0F8019183808384EF9FEFE9CFF980FA
:103420000E94560E4F2D50E0BE01685F7F4F0E94F4
:10343000FB2C89810E94C50E81E090E0F801918308
:10344000808390E080E0D4CFDF92EF92FF920F93E1
:103450001F93CF93DF938A01EC01C60FD71F0E9401
:10346000560E7C01D9806CD2DD2059F0029721E004
:1034700030E0D816190619F010F030E020E0232BC8
:1034800079F482E090E0F801918380838EEF9FEFE2
:10349000DF91CF911F910F91FF90EF90DF900895F2
:1034A000EF2841F482E090E0F8019183808384EF7B
:1034B0009FEFEECFF9800E94560E4F2D50E0BE01D7
:1034C0006E5F7F4F0E94FB2C89810E94C50E81E0B8
:1034D00090E0F8019183808390E080E0D9CF8BED7C
:1034E00099E19093A00280939F02089580919F029A
:1034F0009091A00208950895FC0111821082938397
:1035000082830895DB011D921C92DC011296ED91DD
:10351000FC9113977183608313967C936E9312973B
:103520000895FC0180819181DB018D939C93A081A2
:10353000B181109741F08D919C9191838083892B6B
:1035400011F4F383E2830895FC0180819181DB0112
:103550008D939C93892B11F47383628371836083B1
:103560000895FC0111821082938382830895CF9382
:10357000DF9300D0CDB7DEB71A821982F894BE016E
:103580006F5F7F4F86EA92E0CCDF89819A81009756
:1035900009F010D389819A81892B89F7BE016F5F69
:1035A0007F4F8AEA92E0BDDF89819A81009709F016
:1035B00001D389819A81892B89F778940F900F9094
:1035C000DF91CF910895CF93DF9300D0CDB7DEB7D1
:1035D0001A821982F894BE016F5F7F4F82EA92E0EF
:1035E000A0DF89819A81009709F0E4D289819A81CC
:1035F000892B89F778940F900F90DF91CF910895E0
:1036000081E0089590E080E00895EF92FF920F939B
:103610001F93CF93DF9300D0CDB7DEB71A82198204
:103620008091A10207EF1FEF8823A1F1F894BE015A
:103630006F5F7F4F8AEA92E074DF789489819A8184
:10364000EE24E394F12C892B51F4F894BE016F5FC2
:103650007F4F86EA92E065DF7894F12CE12C898136
:103660009A810EEF1FEF0097A9F0FC014281538170
:1036700064E070E06CD68C01892B61F0F89469816C
:103680007A81C701880F991F880F991F8A559D4F0E
:103690005BDF7894C8010F900F90DF91CF911F915D
:1036A0000F91FF90EF9008950F931F93CF93DF93A7
:1036B00000D000D0CDB7DEB71C821B821A821982DF
:1036C0008091A10207EF1FEF8823C1F0AE014D5F8B
:1036D0005F4F64E070E0CE010196ACD68C01892B7F
:1036E00069F4E981FA818B819C8193838283F894C8
:1036F00069817A8182EA92E005DF7894C8010F90AF
:103700000F900F900F90DF91CF911F910F9108951F
:10371000B1D7049608958F929F92AF92BF92CF92A5
:10372000DF92EF92FF920F931F93CF93DF9300D01E
:10373000CDB7DEB71A821982BC016F5F7F4F63304D
:10374000710598F0AA24AA94BA2CC5010F900F9085
:10375000DF91CF911F910F91FF90EF90DF90CF906D
:10376000BF90AF909F908F9008954115510551F3F0
:10377000480159018A016C01CBDF8815990511F7C1
:10378000E114F104F9F28E0D9F1DA816B906D0F2CE
:103790008091A1028823F1F0F894B5016450710979
:1037A0009701AE014F5F5F4FC8010496D8D65C0108
:1037B000892B71F489819A81F80193838283C601F0
:1037C000880F991F880F991FB8018A559D4F9ADE5F
:1037D0007894BBCF87EFA82EBB24BA94B6CFAF9214
:1037E000BF92CF92DF92EF92FF920F931F93CF93EE
:1037F000DF9300D0CDB7DEB71A821982892B09F08A
:1038000047C06115710509F443C04115510509F41C
:103810003FC02115310509F43BC001151105C1F167
:103820008091A1028823B9F179016A015B01F894C2
:10383000BE016F5F7F4F82EA92E073DE78948981E8
:103840009A81009759F1DC0112966D917C91A80143
:1038500004969ED68C01E981FA81D501ED93FC9303
:10386000828193810496F6019183808351DFD70191
:103870008D939C93C8010F900F90DF91CF911F9172
:103880000F91FF90EF90DF90CF90BF90AF90089591
:103890000FEF1FEFEFCF07EF1FEFECCF0EEF1FEF94
:1038A000E9CFCF93DF93EC01672B71F4ECD68C1743
:1038B0009D0760F0DFD62496C80FD91FDED68C0F87
:1038C0009D1FDF91CF910895DBD6F1CF90E080E08E
:1038D000F8CF0F931F93CF93DF932091A102211173
:1038E0002BC08B01EC0186EA92E006DE8AEA92E0C8
:1038F00003DE82EA92E000DE97D00097C1F4C3D6DF
:1039000070E060E0CEDF4BE151E062E070E07ED13C
:10391000009769F480911B0190911C01C6D6B801F3
:10392000CE01FBD4009719F421E02093A102DF918E
:10393000CF911F910F91089584EF9FEFF8CFA0C60C
:10394000A2C6CF93DF93A2D6EC01892B11F40FDE30
:103950003ADECE01DF91CF910895CF93DF9396D6D3
:10396000EC01892B09F403DECE01DF91CF9108959C
:1039700080911B0190911C010895CF93DF9380915A
:10398000A102D0E0C0E08823D1F094D6EC01892BCD
:10399000B1F4EDDD18DE80911B0190911C01E4D1A2
:1039A000E5D2EC01892B59F486EA92E0DADD8AEA65
:1039B00092E0D7DD82EA92E0D4DD1092A102CE013E
:1039C000DF91CF910895EF92FF920F931F93CF93C2
:1039D000DF93EC017A018B010F5F1F4F0E9DA00159
:1039E0000F9D500D1E9D500D112470E060E00E944F
:1039F000042D90E080E0F0E0E0E02FEFE816F9061B
:103A000039F4DF91CF911F910F91FF90EF900895BE
:103A10001A8219822883309711F0D283C1830196CC
:103A2000FE01C00FD11FEACFCF92DF92EF92FF923B
:103A30000F931F93CF93DF930AE813E00C7F43E0CB
:103A400050E06DE171E083E291E014D48DE1E82E65
:103A500081E0F82E93E2C92E91E0D92EC9EFD3E090
:103A6000D7014D915D917D01F601619171916F01D9
:103A7000198308835D834C835B834A837F836E83D2
:103A80009B012F5F3F4F249FC001259F900D349FC6
:103A9000900D1124998788870115110511F0C8012F
:103AA00092DF88859985080F191F2A96F3E2EF1691
:103AB000F1E0FF06A9F6E0EBF2E087EDDF011D92F1
:103AC0008A95E9F71092AF021092AE021092180494
:103AD0001092170410921C0410921B0410921A04E6
:103AE0001092190410921E0410921D0410922004CA
:103AF00010921F04109222041092210410922604A6
:103B00001092250410922404109223041092280489
:103B10001092270410922A04109229041092F6039E
:103B20001092F5031092F8031092F70390E080E0F2
:103B3000DF91CF911F910F91FF90EF90DF90CF9089
:103B400008950097F1F0F894A3E2B1E0E9EFF3E013
:103B500030E020E04D915D9148175907A8F042816F
:103B600053814115510581F08AE0829FF001839FC6
:103B7000F00D1124E750FC4F80819181009759F49A
:103B8000789490E080E008952F5F3F4F3A9623307D
:103B9000310501F7F5CFDC0111966D917C917183B0
:103BA00060834150510953834283FC012193CF012B
:103BB00078940895009749F1DC018E91853041F4A5
:103BC000E091F703F091F8033097F9F0CD010994F3
:103BD0008530D8F4282F30E0F8948FEF8C938AE06A
:103BE000829FF001839FF00D1124E750FC4F8081EC
:103BF000918112969C938E931197B183A0838281B9
:103C0000938101969383828378940895CF92DF9273
:103C1000EF92FF920F931F93CF93DF939C0183EB5F
:103C200092E08C7F4115510509F49BC021153105A7
:103C300009F497C06115710509F493C07A01AB01CD
:103C4000B9016D5F7F4F6C7F9B012F5F3F4F249FBA
:103C50008001259F100D349F100D1124F8942091A0
:103C6000170430911804232B59F420911F0430912C
:103C700020042115310569F12017310708F058C0DB
:103C80002091210430912204232B91F420911F04D0
:103C900030912004820F931F2091290430912A042F
:103CA0002115310509F441C02017310708F056C02D
:103CB0007894CFEFDFEF86EF9FEFF701D183C083DA
:103CC000DF91CF911F910F91FF90EF90DF90CF90F8
:103CD0000895C3E0D0E0C090AE02D090AF0224EDD2
:103CE00030E02C193D092017310710F32AE02C9FF2
:103CF000F0012D9FF00D1124E750FC4F918380833C
:103D00005583448353834283778366831187008777
:103D1000009709F058DE0C0D1D1D1093AF020093A3
:103D2000AE02789490E080E0C8CFC4E0D0E0D3CF7A
:103D3000C3E0D0E02AE02C9FF0012D9FF00D11246C
:103D4000E750FC4F918380835583448353834283A0
:103D500077836683009729F336DEE3CFC4E0D0E0B3
:103D6000E9CF8FEF9FEFACCF9C010397029708F04C
:103D700069C0F89484E09AE0482F50E02417350792
:103D80000CF44DC091E08AE0829FF001839FF00D1A
:103D90001124E750FC4F1182108215821482138285
:103DA0001282178216829923B1F1809117049091A3
:103DB0001804892BA9F420911F04309120042115A7
:103DC000310571F08091AE029091AF02821B930B8E
:103DD0009093AF028093AE021092200410921F04C1
:103DE0008091210490912204892BA9F42091290427
:103DF00030912A042115310571F08091AE02909125
:103E0000AF02821B930B9093AF028093AE0210928D
:103E10002A0410922904789490E080E00895949FF9
:103E2000F001959FF00D1124E750FC4F4081518126
:103E3000452B31F440855185452B11F481509CCFA1
:103E400090E0A1CF8FEF9FEF08954115510549F103
:103E5000009739F16115710521F1F8942091F5036E
:103E60003091F603232BB9F42091F7033091F80336
:103E7000232B89F49093F6038093F5037093F80352
:103E80006093F703789425E030E090E080E0FA0159
:103E900031832083089578942FEF3FEF86EF9FEFD3
:103EA000F6CF8FEF9FEF0895059769F4F89410927D
:103EB000F6031092F5031092F8031092F70378942A
:103EC00090E080E008958FEF9FEF089561157105F0
:103ED00019F4F0E0E0E011C08530910581F4E09143
:103EE000F503F091F6033097A1F3CB010196099504
:103EF000009779F3FC0185E08193CF0108959C013F
:103F0000235031092230310520F72AE0289FD001C3
:103F1000299FB00D1124A750BC4F2D913C911197B2
:103F2000232BB9F216962D913C9117972617370738
:103F300080F2F89412962D913C911397211531053A
:103F400029F0ED91FC911197309711F47894C1CF3D
:103F50004181528111965C934E9321503109139601
:103F60003C932E93129781937894C7CFE7E8F3E0C0
:103F70008EE6DF011D928A95E9F7E0EBF2E087ED2E
:103F8000DF011D928A95E9F71092AF021092AE02FE
:103F9000E9EFF3E082E3DF011D928A95E9F7E5EFAF
:103FA000F3E084E0DF011D928A95E9F790E080E07C
:103FB0000895CF93DF93C0912901D0912A01CF3F7B
:103FC000DC0759F409D490932A018093290197FFC3
:103FD00009C0D0932A01C093290184EF9FEFDF919C
:103FE000CF91089590E080E0FACF8230910528F4D7
:103FF00080932B0490E080E008958FEF9FEF089569
:104000004F925F926F927F92AF92BF92CF92DF9268
:10401000EF92FF920F931F93CF93DF9300D0CDB712
:10402000DEB71A821982009709F479C0611571050B
:1040300009F475C02091290130912A0107EF1FEF83
:104040002F3F3F4F09F445C06B015C01412C512CBF
:104050003201F12CE12C10E000E09E012F5F3F4F78
:10406000A6014E195F09B5016E0D7F1D80912901D2
:1040700090912A0110D4892B09F04BC089819A8133
:10408000009741F4E114F10429F420912B04222338
:1040900009F442C0E80EF91EEC14FD04D0F480E8E7
:1040A000481684E858068EE16806710420F560E041
:1040B00070E0CB010E9436292AE0420E511C611C9F
:1040C000711C0A3F4FEF140721F0043F8FEF1807D0
:1040D000A1F4C8010F900F90DF91CF911F910F9124
:1040E000FF90EF90DF90CF90BF90AF907F906F9058
:1040F0005F904F90089501EF1FEF81E090E0013F46
:104100002FEF120711F090E080E0892B09F4A5CF82
:10411000E0CF04EF1FEFDDCF0AEF1FEFDACF0FEF95
:104120001FEFD7CF4F925F926F927F92AF92BF9265
:10413000CF92DF92EF92FF920F931F93CF93DF9373
:1041400000D0CDB7DEB71A821982009709F479C082
:104150006115710509F475C02091290130912A017A
:1041600007EF1FEF2F3F3F4F09F445C06B015C0184
:10417000412C512C3201F12CE12C10E000E09E0189
:104180002F5F3F4FA6014E195F09B5016E0D7F1DD0
:104190008091290190912A0134D3892B09F04BC0D9
:1041A00089819A81009741F4E114F10429F4209166
:1041B0002B04222309F442C0E80EF91EEC14FD047E
:1041C000D0F480E4481682E458068FE06806710453
:1041D00020F560E070E0CB010E9436292AE0420E13
:1041E000511C611C711C0E3F4FEF140721F0043F5E
:1041F0008FEF1807A1F4C8010F900F90DF91CF91B6
:104200001F910F91FF90EF90DF90CF90BF90AF90F4
:104210007F906F905F904F90089502EF1FEF81E0C5
:1042200090E0023F2FEF120711F090E080E0892B21
:1042300009F4A5CFE0CF04EF1FEFDDCF0EEF1FEFA6
:10424000DACF0FEF1FEFD7CF8091290190912A018C
:104250008F3F980749F0B8D2892B49F48FEF9FEF31
:1042600090932A018093290190E080E0089584EFE3
:104270009FEF0895CF92DF92EF92FF920F931F93DB
:10428000CF93DF9321E04115510509F020E0415023
:10429000510921112CC0DC01FB01D12CC12C21E0E2
:1042A00022C03FEFC31AD30A7D010D911D91E70192
:1042B000EA80FB80E016F106A8F420813181E280DB
:1042C000F380F182E08233832283ED90FC9011979A
:1042D0009D0122503109E901F982E88211961C936F
:1042E0000E9320E03296C416D506D8F2D2CFDF91D5
:1042F000CF911F910F91FF90EF90DF90CF90089595
:10430000FC01680F791F90E080E0E617F70709F4D9
:1043100008952191820F911DF8CF20912C04211135
:1043200013C047DE009791F41092320410923104CA
:104330001092300410922F0410922E0410922D042B
:1043400021E020932C04089584EF9FEF0895AF920D
:10435000BF92CF92DF92EF92FF920F931F93CF9372
:10436000DF93009709F460C04630510508F45CC043
:1043700020912C04C7EFDFEF222309F449C08C0100
:10438000060F171FF801C080D180C114D10409F4B1
:104390004EC096012A5F3F4F4217530708F447C0AB
:1043A0007C01809131049091320493838283B60121
:1043B0006C5F7F4F5801A60EB71EC801A1DFF50143
:1043C0009183808364E070E0C8011ADEEC01892BE0
:1043D000F9F481E090E009DEB601C801049610DE30
:1043E000EC01892B91F462E070E0C50109DEEC017B
:1043F000892B59F4C701DEDB80913104909132049E
:104400000196909332048093310490E080E0EDDDDA
:10441000CE01DF91CF911F910F91FF90EF90DF9030
:10442000CF90BF90AF900895CFEFDFEFF1CFC9EFFE
:10443000DFEFEECF6F927F928F929F92AF92BF92FB
:10444000CF92DF92EF92FF920F931F93CF93DF9360
:1044500000D000D0CDB7DEB7009709F47AC041157F
:10446000510509F476C020912C0407EF1FEF222399
:1044700009F44DC03A017B015C0164E070E0CE01BB
:10448000019650DE8C01892B09F041C009811A8107
:104490000115110509F45AC0480186E0880E911CE7
:1044A000B701680D791D80912B0190912C010EDDD3
:1044B0006C01009709F450C0A70170E060E00E9411
:1044C000042D89819A81AB81BC81EC0CFD1CF70124
:1044D00081939193A193B1937F0181E090E085DD79
:1044E000B801C7011FDE892B31F562E070E0C7011A
:1044F000800F911F17DE8C01892BE9F490E080E09A
:1045000074DDF501D182C082F30191828082C801FD
:104510000F900F900F900F90DF91CF911F910F91FF
:10452000FF90EF90DF90CF90BF90AF909F908F90D3
:104530007F906F90089590E080E057DDF501118243
:104540001082F30111821082C60134DB09EF1FEFE4
:10455000DECF0FEF1FEFDBCF06EF1FEFD8CF0097B7
:10456000A1F04115510589F02115310571F0F901CE
:1045700036966E177F0748F0DC012D933C93DA01E5
:10458000ED93FC9390E080E008958FEF9FEF089506
:10459000AF92BF92CF92DF92EF92FF920F931F9351
:1045A000CF93DF93009709F45FC04115510509F4DB
:1045B0005BC06530710508F457C020912C04C7EF2B
:1045C000DFEF222391F1DC01CD90DC901197129660
:1045D000ED91FC9196012A5F3F4FC9EFDFEF26175F
:1045E000370719F5C0912D04D0912E04209749F575
:1045F00021E030E030932E0420932D047A018C01C9
:10460000F0933004E0932F045601B4E0AB0EB11CDC
:10461000B50176DE0A0D1B1DF8012081318182175C
:10462000930729F5D701CD92DC92CE01DF91CF918E
:104630001F910F91FF90EF90DF90CF90BF90AF90C0
:10464000089520912F04309130042F5F3F4FCCEF1D
:10465000DFEFE217F30790F2CBEFDFEF2E173F0704
:1046600068F2D0E0C0E0CACFCFEFDFEFDECFC3EF1C
:10467000DFEFDBCF84E090E0089582E090E00895E2
:104680008CEF9FEF089580E290E00895109232043D
:10469000109231041092300410922F0410922E04C4
:1046A00010922D0490E080E0089590932C01809367
:1046B0002B01089580912C04882391F0C5DD00978B
:1046C00089F4109232041092310410923004109246
:1046D0002F0410922E0410922D0410922C04089591
:1046E00090E080E00895009749F06115710531F080
:1046F000FC0111821082FB01118210820895F3CF18
:1047000026E030E040E855E260E070E090E080E0D4
:1047100000C0892B19F487E694E090C708951F9292
:104720000F920FB60F9211242F933F934F935F93E5
:104730006F937F938F939F93AF93BF93EF93FF9369
:1047400083E88093B200809133048F5F80933304B9
:10475000893119F410923304B1D0FF91EF91BF91D8
:10476000AF919F918F917F916F915F914F913F9109
:104770002F910F900FBE0F901F90189583E8809394
:10478000B200E0E7F0E080818E7F8083A0EBB0E0B4
:104790008C918C7F8C93A1EBB0E08C91877F8C9374
:1047A0008C9187608C938081816080830895E0E79D
:1047B000F0E0808190819E7F90838170089581E0F8
:1047C000089510923404089568EE73E080E090E05C
:1047D0004DD590E080E0089526E030E040E052ECD6
:1047E00061E070E090E080E094DF87E694E05CD6E2
:1047F000892B21F087E694E071D6F7CF90E080E036
:104800000895CF92DF92EF92FF920F931F93CF9371
:10481000DF936B017A01E9011982188287E694E03F
:1048200043D6892B69F18601CC24C39482E0D82E2B
:1048300080913404811110C087E694E04FD602972E
:10484000B9F7C0923404F801D1928F01888199811F
:10485000019699838883ECCF888199818E159F0575
:1048600078F487E694E03AD68F3F9807A9F3F801E9
:1048700081938F0188819981019699838883ECCFF8
:1048800090E080E0DF91CF911F910F91FF90EF902A
:10489000DF90CF9008950F931F93CF93DF93EA019A
:1048A000890187E694E0AED7F801D183C08390E018
:1048B00080E0DF91CF911F910F910895CF92DF9209
:1048C000EF92FF92CF93DF938091350491E0980FA0
:1048D00090933504882379F021E030E03093370459
:1048E0002093360480933504DF91CF91FF90EF90B1
:1048F000DF90CF9008957894C0912F01D09130012E
:104900006E8D7F8D88A199A143D120E030E040E8F1
:104910005FE4F4D16B017C016A8D7B8D8C8D9D8D64
:1049200037D19B01AC01C701B60199D005D16B010C
:104930007C010E94BD02B701A60190E080E00E94C8
:104940002F02F894809135048150CCCF0F931F93A0
:10495000CF93DF9310925C0510925B05BDD4D0DE3F
:10496000C0912F01D0913001198218826FEF7FEF33
:10497000CB010E94B20270E060E090E080E00E9413
:104980003301009709F03AC00E943404F8947894F7
:10499000BE016A5D7F4F8A819B810E943601892B0F
:1049A00059F46FEF7FEFCB010E94C5010E94AC026A
:1049B000882311F081E08AA7F894E0DE0E94AF021C
:1049C000882311F080E008C00E94AC028111FACF68
:1049D00081E09AA59111F6CF80935B0578940E94AF
:1049E000A10B8C01789480915B0581110CC00E9411
:1049F00031050E949102F89490E080E0DF91CF9120
:104A00001F910F9108950E948F020E94AF02882388
:104A1000D9F081E080935C0590915C0581E0911173
:104A200080E080935B0580915C058111C0DE0130E0
:104A3000110529F40E94A10B892B09F4C2DE0E9402
:104A4000A10B8C01BCDECFCF0E94AC028111E1CF63
:104A500081E09AA59111DECF80E0DCCF5058BB27D2
:104A6000AA270ED00DC1FED030F003D120F031F4D2
:104A70009F3F11F41EF4F3C00EF4E095E7FBE9C08C
:104A8000E92F0FD180F3BA176207730784079507E0
:104A900018F071F49EF527C10EF4E0950B2EBA2F95
:104AA000A02D0B01B90190010C01CA01A001112434
:104AB000FF27591B99F0593F50F4503E68F11A16E0
:104AC000F040A22F232F342F4427585FF3CF469571
:104AD00037952795A795F0405395C9F77EF41F1693
:104AE000BA0B620B730B840BBAF09150A1F0FF0F5D
:104AF000BB1F661F771F881FC2F70EC0BA0F621F49
:104B0000731F841F48F4879577956795B795F79538
:104B10009E3F08F0B3CF9395880F08F09927EE0FCA
:104B200097958795089571D008F481E0089504D091
:104B30006894B111D9C00895BCD088F09F5790F007
:104B4000B92F9927B751A0F0D1F0660F771F881FB2
:104B5000991F1AF0BA95C9F712C0B13081F0C3D0CD
:104B6000B1E00895C0C0672F782F8827B85F39F06B
:104B7000B93FCCF3869577956795B395D9F73EF411
:104B800090958095709561957F4F8F4F9F4F0895B9
:104B9000E89409C097FB3EF49095809570956195D7
:104BA0007F4F8F4F9F4F9923A9F0F92F96E9BB278D
:104BB0009395F695879577956795B795F111F8CF09
:104BC000FAF4BB0F11F460FF1BC06F5F7F4F8F4F74
:104BD0009F4F16C0882311F096E911C0772321F06A
:104BE0009EE8872F762F05C0662371F096E8862F02
:104BF00070E060E02AF09A95660F771F881FDAF759
:104C0000880F9695879597F90895990F0008550F85
:104C1000AA0BE0E8FEEF16161706E807F907C0F042
:104C200012161306E407F50798F0621B730B840B4A
:104C3000950B39F40A2661F0232B242B252B21F424
:104C400008950A2609F4A140A6958FEF811D811DC4
:104C5000089597F99F6780E870E060E008959FEFFE
:104C600080EC089500240A94161617061806090603
:104C7000089500240A9412161306140605060895D2
:104C8000092E0394000C11F4882352F0BB0F40F45A
:104C9000BF2B11F460FF04C06F5F7F4F8F4F9F4F9A
:104CA000089557FD9058440F551F59F05F3F71F01C
:104CB0004795880F97FB991F61F09F3F79F0879583
:104CC0000895121613061406551FF2CF4695F1DF0C
:104CD00008C0161617061806991FF1CF869571059C
:104CE000610508940895E894BB2766277727CB01D0
:104CF00097F908958ADF08F48FEF08950BD0C0CF9D
:104D0000B1DF28F0B6DF18F0952309F0A2CFA7CFC6
:104D10001124EACFC6DFA0F3959FD1F3950F50E0A1
:104D2000551F629FF001729FBB27F00DB11D639F5D
:104D3000AA27F00DB11DAA1F649F6627B00DA11D03
:104D4000661F829F2227B00DA11D621F739FB00DA9
:104D5000A11D621F839FA00D611D221F749F332719
:104D6000A00D611D231F849F600D211D822F762FB2
:104D70006A2F11249F5750408AF0E1F088234AF0AF
:104D8000EE0FFF1FBB1F661F771F881F91505040FB
:104D9000A9F79E3F510570F05CCFA6CF5F3FECF3C3
:104DA000983EDCF3869577956795B795F795E795E7
:104DB0009F5FC1F7FE2B880F911D9695879597F9F8
:104DC00008951F920F920FB60F9211242F933F93C5
:104DD0004F935F936F937F938F939F93AF93BF9303
:104DE000EF93FF938091390487FF27C010928500CD
:104DF00010928400809139048F5F809339048091F0
:104E00003904082E000C990B209138042817190634
:104E100029F024F0809139048C30D4F18091840001
:104E200090918500049680349C4908F479C0809163
:104E3000840090918500049675C080913904082EF5
:104E4000000C990B209138042817190699F294F256
:104E5000E09139048E2FEE0F990BFC01EE0FFF1F2E
:104E6000E80FF91FE65CFB4F808186FFC3CFE0911E
:104E700039048E2FEE0F990BFC01EE0FFF1FE80F88
:104E8000F91FE65CFB4F808160E08F73E0D2B2CF08
:104E90002091840030918500E09139048E2FEE0F2F
:104EA000990BFC01EE0FFF1FE80FF91FE65CFB4FAB
:104EB00081819281820F931F909389008093880053
:104EC000E09139048E2FEE0F990BFC01EE0FFF1FBE
:104ED000E80FF91FE65CFB4F808186FF10C0E09170
:104EE00039048E2FEE0F990BFC01EE0FFF1FE80F18
:104EF000F91FE65CFB4F808161E08F73A8D2FF91C0
:104F0000EF91BF91AF919F918F917F916F915F9141
:104F10004F913F912F910F900FBE0F901F901895BA
:104F200080E49CE990938900809388008FEF8093C0
:104F30003904E5CFFC01909138049C3098F481E06D
:104F4000890F809338049083892F90E0FC01EE0F45
:104F5000FF1FE80FF91FE65CFB4F88EB9BE0928395
:104F6000818308958FEF80830895DF92EF92FF92FF
:104F70000F931F93CF93DF93EC01D62E7A01890113
:104F800088818C3008F065C061E08D2D24D2888145
:104F9000282F30E0F901EE0FFF1FE20FF31FE65C50
:104FA000FB4F9D2D9F736081607C692B608320E2A5
:104FB00032E02E193F0937FF02C02D5F3F4F359574
:104FC000279535952795298320E639E0201B310B5D
:104FD00037FF02C02D5F3F4F3595279535952795B3
:104FE0002A832CE0622F8AD4829FB001112430E002
:104FF00020E0AB01420F531FFA01EE0FFF1FE40F39
:10500000F51FE65CFB4F908196FD16C02F5F3F4F6A
:105010002C30310571F781110FC01092800082E0B1
:10502000809381001092850010928400B19A809143
:105030006F00826080936F00E8818E2F90E0FC010A
:10504000EE0FFF1FE80FF91FE65CFB4F80818064C5
:1050500080838881DF91CF911F910F91FF90EF9016
:10506000DF90089520E639E040E252E07ECFDC0197
:10507000EC91EC3090F511968C91119728E830E086
:10508000281B310987FD3395220F331F220F331F51
:105090006217730784F012968C9128E532E0281B82
:1050A000310987FD3395220F331F220F331F6217FB
:1050B00073070CF49B0122503109220F331F4FB7A5
:1050C000F8948E2F90E0FC01EE0FFF1FE80FF91F00
:1050D000E65CFB4F328321834FBF0895AF92BF92AE
:1050E000CF92DF92EF92FF920F931F93CF93DF93B4
:1050F000EC01603282E078070CF03DC0653B710541
:1051000014F064EB70E0898148E8A42EB12CA81A51
:10511000B10887FDB394AA0CBB1CAA0CBB1C0B2CBA
:10512000000CCC08DD0877FF02C070E060E0072EBD
:10513000000C880B990B2A8108E512E0021B11096B
:1051400027FD1395000F111F000F111F012E000CDA
:10515000220B330B3F932F931F930F9314EBE12EEE
:10516000F12C00E010E020E030E0A90178D30F90AE
:105170000F900F900F90CE01DF91CF911F910F9163
:10518000FF90EF90DF90CF90BF90AF9070CF1F92C5
:105190000F920FB60F9211242F933F938F939F93EB
:1051A000AF93BF9380915F0490916004A0916104DC
:1051B000B091620430915E0423E0230F2D3758F53F
:1051C0000196A11DB11D20935E0480935F0490930E
:1051D0006004A0936104B093620480916304909191
:1051E0006404A0916504B09166040196A11DB11DEF
:1051F0008093630490936404A0936504B093660461
:10520000BF91AF919F918F913F912F910F900FBEC2
:105210000F901F90189526E8230F0296A11DB11D2F
:10522000D2CF3FB7F8948091630490916404A09129
:105230006504B091660426B5A89B05C02F3F19F000
:105240000196A11DB11D3FBFBA2FA92F982F882706
:10525000BC01CD01620F711D811D911D42E0660FE1
:10526000771F881F991F4A95D1F708958F929F92B3
:10527000AF92BF92CF92DF92EF92FF926B017C01CF
:10528000D0DF4B015C01C114D104E104F104D9F079
:1052900025D3C7DF681979098A099B09683E7340DD
:1052A0008105910580F321E0C21AD108E108F108D7
:1052B00088EE880E83E0981EA11CB11CC114D10495
:1052C000E104F10431F7FF90EF90DF90CF90BF90B1
:1052D000AF909F908F900895789484B5826084BD3C
:1052E00084B5816084BD85B5826085BD85B58160EA
:1052F00085BDEEE6F0E0808181608083E1E8F0E04A
:105300001082808182608083808181608083E0E878
:10531000F0E0808181608083E1EBF0E08081846057
:105320008083E0EBF0E0808181608083EAE7F0E059
:1053300080818460808380818260808380818160BD
:1053400080838081806880831092C10008958E30B0
:1053500008F08E5020912D0190E4299F9001112496
:105360008770822B80937C0080917A008064809388
:105370007A0080917A0086FDFCCF80917800909130
:1053800079000895833081F028F4813099F08230DB
:10539000A9F008958730A9F08830C9F08430B1F4BD
:1053A000809180008F7D03C0809180008F778093F3
:1053B0008000089584B58F7784BD089584B58F7D6E
:1053C000FBCF8091B0008F778093B00008958091DB
:1053D000B0008F7DF9CFCF93DF9390E0FC01E458CC
:1053E000FF4F249180579F4FFC0184918823C9F07F
:1053F00090E0880F991FFC01E255FF4FA591B491F1
:10540000FC01EC55FF4FC591D49161110DC09FB7C0
:10541000F8948C91209582238C938881282328836B
:105420009FBFDF91CF910895623051F49FB7F894F8
:105430003C91822F809583238C93E8812E2BEFCF94
:105440008FB7F894EC912E2B2C938FBFEACF1F933C
:10545000CF93DF93282F30E0F901E859FF4F849173
:10546000F901E458FF4FD491F901E057FF4FC4917F
:10547000CC23A1F0162F811185DFEC2FF0E0EE0F89
:10548000FF1FEC55FF4FA591B4918FB7F894EC91A5
:10549000111108C0D095DE23DC938FBFDF91CF912F
:1054A0001F910895DE2BF8CFFC01918D228D892F5D
:1054B00090E0805C9F4F821B91098F73992708951C
:1054C000FC01918D828D981731F0828DE80FF11DCE
:1054D000858D90E008958FEF9FEF0895FC01918DE9
:1054E000828D981761F0A28DAE0FBF2FB11D5D9612
:1054F0008C91928D9F5F9F73928F90E008958FEFB4
:105500009FEF0895FC01538D448D252F30E0842FAB
:1055100090E0821B930B541710F0CF9608950197DB
:105520000895FC01A48DA80FB92FB11DA35ABF4F38
:105530002C91848D90E001968F739927848FA68992
:10554000B7892C93A089B1898C91837080648C93E6
:10555000938D848D981306C00288F389E02D808195
:105560008F7D80830895CF93DF93EC01888D88230E
:10557000B1F0AA89BB89E889F9898C9185FD03C0BE
:10558000808186FD0CC00FB607FCF7CF8C9185FF9C
:10559000F2CF808185FFEDCFCE01C3DFEACFDF916F
:1055A000CF910895EF92FF920F931F93CF93DF93C4
:1055B000EC0181E0888F9B8D8C8D98131AC0E8894F
:1055C000F989808185FF15C09FB7F894EE89FF891E
:1055D0006083E889F98980818370806480839FBFBC
:1055E00081E090E0DF91CF911F910F91FF90EF90BC
:1055F0000895F62E0B8D10E00F5F1F4F0F731127CC
:10560000E02E8C8D8E110BC00FB607FCFACFE88907
:10561000F989808185FFF5CFCE0183DFF2CFEB8D55
:10562000EC0FFD2FF11DE35AFF4FF0829FB7F89466
:105630000B8FEA89FB8980818062D0CFCF92DF9285
:10564000EF92FF921F93CF93DF93EC016A017B01EE
:10565000122FE889F98982E08083C11481EED8068F
:10566000E104F10499F060E079E08DE390E0A701B6
:10567000960164D121503109410951095695479548
:1056800037952795211580E1380790F0E889F98949
:10569000108260E874E88EE190E0A70196014ED197
:1056A000215031094109510956954795379527955C
:1056B000EC85FD853083EE85FF852083188EEC898F
:1056C000FD891083EA89FB89808180618083EA8972
:1056D000FB89808188608083EA89FB89808180687A
:1056E0008083EA89FB8980818F7D8083DF91CF91E0
:1056F0001F91FF90EF90DF90CF9008951F920F922F
:105700000FB60F9211242F938F939F93EF93FF93D4
:10571000E0917704F09178048081E0917D04F0912C
:105720007E0482FD1BC09081809180048F5F8F7307
:1057300020918104821741F0E0918004F0E0E95962
:10574000FB4F958F80938004FF91EF919F918F91F4
:105750002F910F900FBE0F901F9018958081F4CF5E
:105760001F920F920FB60F9211242F933F934F93D6
:105770005F936F937F938F939F93AF93BF93EF93B9
:10578000FF9387E694E0CDDEFF91EF91BF91AF915B
:105790009F918F917F916F915F914F913F912F9149
:1057A0000F900FBE0F901F901895E7E6F4E013825C
:1057B000128288EE93E0A0E0B0E084839583A68314
:1057C000B78383EB91E09183808385EC90E09587AC
:1057D000848784EC90E09787868780EC90E0918BBB
:1057E000808B81EC90E0938B828B82EC90E0958BA8
:1057F000848B86EC90E0978B868B118E128E138EA5
:10580000148E0895AF92BF92CF92DF92EF92FF92E3
:105810000F931F93CF93DF936C017B018B01040FD8
:10582000151FEB015E01AE18BF08C017D10759F074
:105830006991D601ED91FC910190F081E02DC601B6
:105840000995892B79F7C501DF91CF911F910F91B0
:10585000FF90EF90DF90CF90BF90AF9008954F9260
:105860005F926F927F92AF92BF92CF92DF92EF9250
:10587000FF920F931F93CF93DF93CDB7DEB729012C
:105880003A019B01AC012419350946095709898958
:105890009A89AB89BC89BC01CD016A197B098C0945
:1058A0009D091DD0A80197012419350946095709FA
:1058B00067D0CA01B9016A0D7B1D8C1D9D1DDF914A
:1058C000CF911F910F91FF90EF90DF90CF90BF90FD
:1058D000AF907F906F905F904F9008950895DB0197
:1058E0008F939F936FD0BF91AF91A29F800D911D19
:1058F000A39F900DB29F900D11240895991B79E0FC
:1059000004C0991F961708F0961B881F7A95C9F74F
:1059100080950895AA1BBB1B51E107C0AA1FBB1F9E
:10592000A617B70710F0A61BB70B881F991F5A952B
:10593000A9F780959095BC01CD010895A1E21A2E9A
:10594000AA1BBB1BFD010DC0AA1FBB1FEE1FFF1F23
:10595000A217B307E407F50720F0A21BB30BE40B73
:10596000F50B661F771F881F991F1A9469F76095BA
:105970007095809590959B01AC01BD01CF01089574
:10598000052E97FB16F400940FD057FD05D0D6DFF7
:1059900007FC02D046F408C05095409530952195FB
:1059A0003F4F4F4F5F4F089590958095709561954B
:1059B0007F4F8F4F9F4F0895EE0FFF1F0590F4917B
:1059C000E02D099409D0A59F900DB49F900DA49F40
:1059D000800D911D11240895A29FB001B39FC001B5
:1059E000A39F700D811D1124911DB29F700D811D0B
:1059F0001124911D0895FB01DC0102C001900D925C
:105A000041505040D8F70895DC0101C06D934150DA
:0A5A10005040E0F70895F894FFCF2E
:105A1A00000080BFFEFFFFFF01E8030000FFFF0058
:105A2A00000000FFFFFFFFFFFFFFFFFFFF01000174
:105A3A00000100200038001000FFFFFFFF0101F302
:105A4A0001FF00F80D240EFE00DE0D5F0BFD007055
:105A5A000DCA0DFC00B60D5F0BF600A70E5F0BF525
:105A6A00007D0DE60EF400700EFD0EDE002313BC61
:105A7A0015DD0092145F0BDA00CD10D510D900D7CE
:105A8A0015E510E200B50F5F0BE100F00F5F0BE0C8
:105A9A000065105F0BD600BB195F0BD50072125F51
:105AAA000BD400FE115F0BD3006F115F0BC000F423
:105ABA00105F0BF000241A5F0BED00E1195F0B0079
:105ACA00000000D22A022C822AB32A542A6E2A60A3
:025ADA002A00A0
:00000001FF
